:0400000002002B329D
:01000B0032C2
:0100130032BA
:01001B0032B2
:030023000213A322
:070084007522387523077592
:06008B00242875251875FC
:02009100260146
:0300950002002640
:0500260012009880FEAD
:0700980012137375180075C7
:06009F001900751A029021
:0900A500002C75F0001216029007
:0900AE001DBD75F08012174FC250
:0B00B70001758200120B95758200128B
:0900C2000C66758200120DC712D4
:0600CB0000D190000022AC
:0800D100E4FAFBF536F537F502
:0300D90038F539BE
:0E00DC0075823EC002C0031212997582201276
:0600EA0012997518007563
:0600F0001950E4F51A901E
:0900F600022C75F0001216021232
:0600FF0012F17513509090
:09010500022C75F000121489129D
:09010E0004E4D003D002AE2AAFD4
:0A0117002BAC2CBE0008BF0005BC95
:040121000002800D4B
:0D0125008E828F838CF0121621AA82AB838C
:05013200AC2DAD2EAE66
:0C0137002FBC0008BD0005BE00028017B0
:0E0143008C828D838EF0C002C00312162185BF
:090151008236858337D003D00209
:05015A00AC30AD31AE38
:0C015F0032BC0008BD0005BE0002801785
:0E016B008C828D838EF0C002C0031216218597
:090179008238858339D003D002DD
:05018200AC27AD28AE22
:0B01870029BC0009BD0006BE000302F9
:0201920000DC8F
:0E0194008C828D838EF0121D9DFCBC3F0302F9
:0201A20003EB6D
:0E01A400C002C00312041FAC82D003D002ECD4
:0701B20024F5500302040BC9
:0701B900EC2C2C9001C07337
:0701C00002040B0201E10241
:0601C700021E0202A40268
:0601CD0002C50203270237
:0601D30003A70203DD0298
:0601D90003EB0204080222
:0201DF000256C6
:0401E10075442775C5
:0301E5004520753D
:0701E8004680754001E4F5BB
:0601EF0041754240E4F5F9
:0C01F500438A828B83C002C00312058481
:0C020100AC82AD83D003D002ECF522C427
:0A020D0023541FF5238524F0A4F507
:050217002585F0260220
:02021C0000DC04
:04021E0075442C7582
:03022200452075FF
:070225004680754001E4F57D
:06022C0041754240E4F5BB
:0C023200438A828B83C002C00312058443
:0B023E00AC82AD83D003D0028C24857D
:0602490024F0E523A4F5FA
:05024F002585F02602E8
:0202540000DCCC
:07025600852A82852B8385B8
:0C025D002CF0C002C00312060BD003D02E
:09026900029200E4B52D0CE4B58D
:0A0272002E08E4B52F04740180018A
:01027C00E49D
:04027D00FCB40100CC
:0A028100E433FC6006AC36AD3780B4
:01028B00046E
:04028C007C007D0075
:0A0290008C82A2009201C002C0039C
:0A029A00120B95D003D0020200DC25
:0402A40085304A85D2
:0302A800314B8552
:0302AB00324C854D
:0302AE003648854A
:0A02B10037498A828B83C002C00324
:0A02BB0012076DD003D0020200DC30
:0A02C500E4B5330AE4B53406E4B5ED
:0402CF003502803242
:0702D300852A82852B83853B
:0A02DA002CF0C002C00312060B92C4
:0502E400008533828556
:0602E90034838535F0129C
:0402EF001621853619
:0302F3000D85383E
:0402F6000EA20092C2
:0902FA00031211D4D003D002025A
:0203030000DC1C
:07030500852A82852B838508
:0A030C002CF0C002C00312060B9291
:0503160002853682851E
:03031B00380B128A
:09031E001183D003D0020200DCBF
:0A032700E4B52A0AE4B52B06E4B59C
:040331002C02805EBC
:0A0335008A04E4B52D0CE4B52E088F
:08033F00E4B52F0474018001F4
:01034700E4D1
:04034800FDB40100FF
:0A034C00E433FD6006AD36AE3780E5
:0103560004A2
:040357007D007E00A7
:0A035B00E4B5300CE4B53108E4B558
:0603650032047401800166
:01036B00E4AD
:04036C00FEB40100DA
:0A037000E433FE6006AE38AF3980BA
:01037A00047E
:04037B007E037F007E
:0A037F008E4F8D4E8C82C002C00329
:0A0389001209D1D003D0020200DCFB
:0E039300901E9C75F080C002C00312174FD060
:0603A10003D0020200DCA3
:0A03A700E4B52A0CE4B52B08E4B518
:0603B1002C047401800120
:0103B700E461
:0403B800FCB4010090
:0B03BC00E433FC60068A048B0580041B
:0403C7007C007D0039
:0E03CB008C828D83C002C0031211F6D003D0C5
:0403D900020200DC40
:0E03DD00C002C0031208A1D003D0020200DC4F
:0E03EB00901DBD75F080C002C00312174F9028
:0D03F9001E0C75F08012174FD003D00202C9
:0204060000DC18
:030408000200DC13
:0E040B0090203475F080C002C00312174FD04D
:0604190003D0020200DC2A
:04041F00753AF075C5
:030423003B1F7507
:050426003C80AD3AAE80
:03042B003BAF3CA8
:0E042E0074022DFAE43EFB8F048A828B838CCD
:0C043C00F0121D9DFAA3121D9DFBA312DF
:0E0448001D9DFC8A828B838CF0121D9D70031B
:030456000204E0BD
:050459008A188B198CCC
:06045E001A751B02E4F513
:050464001C85278285C4
:0A04690028838529F0C005C006C0F5
:0E0473000712155CE5828583F0D007D006D015
:0C0481000545F0704A7401253AFAE43594
:0A048D003BFBAC3C8A828B838CF0B1
:0C049700121D9D75F003A42427F88602B6
:0E04A300088603088604BA0008BB0005BC00EA
:0304B10002800FB7
:0704B400853A82853B838538
:0804BB003CF0121D9DF58222A8
:0D04C30090203875F08012174F75820022CE
:0A04D00074052DFDE43EFE8D3A8E0A
:0404DA003B8F3C0216
:0204DE00042EEA
:0404E00075820022FF
:0404E400753E2C75C0
:0304E8003F02755B
:0704EB00180075190FE4F57C
:0804F2001A90002775F040127A
:0504FA001602753D0033
:0704FF0074FB253D500122B2
:04050600AD3EAE3F19
:0E050A008D828E83E0FF60188F82C005C006D0
:0E0518001215DCE582D006D00560070DBD008F
:04052600E30E80E080
:0A052A008D3E8E3F8D828E83E070BF
:020534000122A2
:0A053600E53D75F003A42427F8AF9B
:0A0540003EAC3F7A00A60708A604AF
:09054A0008A60218188D028E03A8
:0E0553008A828B83E0FC60188C82C002C00399
:0E0561001215DCE582D003D00270070ABA0042
:04056F00E30B80E03A
:0A0573008A3E8B3F8A828B83E07082
:02057D00012259
:05057F00053D0204FF30
:0C058400AA82AB83C3EA9540EB6480853B
:0A05900041F063F08095F0502EC09A
:04059A0040C041C05C
:04059E0042C043C054
:0405A20040C041C054
:0405A60044C045C048
:0605AA00467444C0E07439
:0C05B00020C0E07480C0E01217C2E5819A
:0A05BC0024F4F58185408285418317
:0105C6002212
:0A05C700C3E5429AE54364808BF01F
:0A05D10063F08095F0502EC042C088
:0405DB0043C042C017
:0405DF0043C040C015
:0405E30041C044C00F
:0405E70045C0467451
:0A05EB0044C0E07420C0E07480C03A
:0C05F500E01217C2E58124F4F581854274
:05060100828543832205
:050606008A828B8322B3
:0E060B00AA82AB83ACF0BA0008BB0005BC00AD
:0306190002C322F7
:04061C007518727566
:0306200019207529
:070623001A80751B02E4F5CB
:0C062A001C8A828B838CF0C002C003C0CD
:0E0636000412155CE5828583F0D004D003D059
:070644000245F07002D32211
:04064B007518777532
:03064F00192075FA
:070652001A80751B02E4F59C
:0C0659001C8A828B838CF0C002C003C09E
:0E0665000412155CE5828583F0D004D003D02A
:070673000245F07002D322E2
:04067A0075187A7500
:03067E00192075CB
:070681001A80751B02E4F56D
:0C0688001C8A828B838CF0C002C003C06F
:0E0694000412155CE5828583F0D004D003D0FB
:0706A2000245F07002C322C3
:0406A90075188075CB
:0306AD001920759C
:0706B0001A80751B02E4F53E
:0C06B7001C8A828B838CF0C002C003C040
:0E06C3000412155CE5828583F0D004D003D0CC
:0706D1000245F07002C32294
:0E06D8008A828B838CF0121D9DF582C002C0B9
:0E06E60003C004121705E582D004D003D00231
:0E06F40060128A828B838CF0121621AA82ABD0
:0607020083EA4B24FF22F4
:02070800C3220A
:0E070A00AA82C002121705E582D0026006EA3C
:0507180024D0FB803439
:0E071D00C3EA648094E1401174E68AF063F050
:0B072B008095F0400674A92AFB801B9B
:0E073600C3EA648094C1401174C68AF063F077
:0B0744008095F0400674C92AFB80027B
:02074F007B002D
:030751008B822276
:0B07540012070AAA82854782C0021229
:0E075F00070AAB82D002EAC454F04BF58222A6
:0A076D00AA82AB838522F0E524A4E4
:0E077700FCADF0C3EA9CEB9D40099020847518
:05078500F08002174F97
:0A078A00C3E5489401E5496480943A
:0A07940080401AAC48AD49EC2AFE83
:0A079E00ED3BFF8524F0E523A4F8ED
:0907A800A9F0C3EE98EF99400995
:0907B10090208D75F08002174FB5
:0507BA00AE4AAF4BA8A0
:0107BF004CED
:0E07C000C3E49C74808DF063F08095F04003DC
:0307CE0002089886
:0C07D1008E828F8388F0121D9DF54DA3D1
:0C07DD0088F0121D9DF9A3AE82AF838549
:0C07E9004D82C002C003C004C005C00661
:0E07F500C007C000C001121534E582D001D04B
:0E08030000D007D006D005D004D003D002608C
:0E081100298982C002C003C004C005C006C011
:0E081F0007C000C001121534E582D001D000E0
:0E082D00D007D006D005D004D003D002700949
:09083B0090209575F08002174F22
:0A0844008947854D82C002C003C041
:0E084E0004C005C006C007C000120754D00049
:0D085C00D007D006D005D004D003D0028A0A
:0A086900188B19C002C003C004C0C0
:0E08730005C006C007C0001210CFD000D0078D
:0E088100D006D005D004D003D0021CBCFF016D
:01088F001D4B
:050890000ABA00010B93
:030895000207C097
:090898009020A175F08002174FB9
:0908A100AA247B00AC237D00AE0B
:0608AA00227F00C025C002
:0C08B00026C002C003C004C005C006C082
:0A08BC000774A4C0E07420C0E074CB
:0D08C60080C0E01217C2E58124F5F5819095
:0A08D30020E075F08012174F7A0143
:0908DD00C3E5249A50030209B39B
:0E08E600EA24FE500D9020EA75F080C0021248
:0408F400174FD002C8
:0C08F8008A037C00C002C003C00474EB43
:0B090400C0E07420C0E07480C0E0126E
:0C090F0017C2E58124FBF581D0027B01BA
:0A091B00C3E5229B40328A0A8B825A
:0E092500C002C003121132AC827D00C004C0BB
:0A0933000574F2C0E07420C0E07407
:0E093D0080C0E01217C2E58124FBF581D003D3
:08094B00D00274082BFB80C8E8
:0C0953000A8A037C00C002C003C00474C8
:0A095F00F8C0E07420C0E07480C00E
:0E096900E01217C2E58124FBF581D0027B016C
:0A097700C3E5229B40328A0A8B82FE
:0E098100C002C003121132AC827D00C004C05F
:0A098F000574F2C0E07420C0E074AB
:0E09990080C0E01217C2E58124FBF581D00377
:0809A700D00274082BFB80C88C
:0409AF000A0208DD53
:0A09B3007401C0E07421C0E07480FC
:0E09BD00C0E01217C21581158115819020A18E
:0609CB0075F08002174FD9
:0B09D100AA82C374089AE433FBAC4F09
:0609DC00EC7003020ADCCE
:0609E200EB6003020AC3F2
:0709E800EA2A2A9009EF73CF
:0709EF00020AC3020A0A021A
:0609F6000A1F020A36028E
:0609FC000A4D020A61022F
:060A02000A75020A8902D8
:020A08000A9D45
:0C0A0A00854E82C002C003C004120AE541
:090A1600D004D003D002020AD87A
:0A0A1F00D201854E82C002C003C060
:0D0A290004120B95D004D003D002020AD8AD
:0A0A3600C201854E82C002C003C059
:0D0A400004120B95D004D003D002020AD896
:0C0A4D00854E82C002C003C004120C25BC
:080A5900D004D003D002807725
:0C0A6100854E82C002C003C004120C6667
:080A6D00D004D003D002806325
:0C0A7500854E82C002C003C004120DC7F1
:080A8100D004D003D002804F25
:0C0A8900854E82C002C003C004120F287A
:080A9500D004D003D002803B25
:0C0A9D00854E82C002C003C004120AE5AE
:070AA900854E82120C6685E8
:060AB0004E82120DC78505
:0C0AB6004E82120F28D004D003D0028022
:010AC200151E
:0D0AC30090203475F080C002C003C0041202
:080AD000174FD004D003D0023F
:040AD8001C0209DC17
:090ADC009020A175F08002174F73
:0D0AE500AA828A037C00C002C003C0047412
:0A0AF20003C0E07421C0E07480C06E
:0E0AFC00E01217C2E58124FBF5819000001284
:0A0B0A0011F6D002EA702ED2027537
:090B14000B01758201121183D25C
:050B1D0002750B0185CB
:060B22002282121183D2B1
:030B28000285241F
:080B2B000B758201121183D247
:030B330002852216
:050B36000B8522821274
:040B3B001183805052
:060B3F00D203750D0175E3
:0C0B45000E018A82C0021211D4D002EA14
:070B510090224A93F50DD23A
:090B580003750E018A82C002122D
:0A0B610011D4D002EA90226093F54F
:040B6B000ED203752E
:0C0B6F000D018A82C0021211D4D002EAEB
:080B7B0090224A93F50DEA9067
:060B8300226093F50ED282
:060B8900038A821211D460
:060B8F009000000211F6C7
:070B9500E582FA702C7B01E0
:090B9C00C3E5249B5003020C1F69
:020BA5007C01D1
:090BA700C3E5229C4016A2019254
:0A0BB000028B0B8C82C003C00412FC
:090BBA001183D004D0030C80E487
:030BC3000B80D6CE
:0A0BC600EA244AFBE43422FCEA248E
:080BD00060FDE43422FE7F0108
:0D0BD8008D828E83E493F8C39F403C78012A
:0C0BE5008B828C83E493F9C398402CA20F
:040BF10001920388E2
:0A0BF5000D8F0E8A82C002C003C0FB
:0E0BFF0004C005C006C007C0001211D4D0000B
:0E0C0D00D007D006D005D004D003D002088056
:010C1B00C90F
:030C1C000F80B98D
:060C1F009000000211F636
:0D0C2500AA828A037C00C002C003C00474D0
:0A0C32002CC0E07421C0E07480C003
:0D0C3C00E01217C2E58124FBF581D002D241
:0C0C4900018A82C002120B959003E81291
:090C550012AFD002C2018A821222
:080C5E000B959003E80212AFB0
:0A0C6600858250AB507C00C003C033
:0A0C700004745BC0E07421C0E0745E
:0D0C7A0080C0E01217C2E58124FBF581E582
:050C870050705E7B01CE
:070C8C00C3E5229B50012289
:020C93007C01E2
:090C9500C3E5249C4014D2028C3A
:0C0C9E000B8B82C003C004121183D00431
:050CAA00D0030C80E600
:0E0CAF00900000C0031211F69000641212AF04
:040CBD00D0037C01E3
:090CC100C3E5249C4014C2028C1E
:0C0CCA000B8B82C003C004121183D00405
:050CD600D0030C80E6D4
:0D0CDB00900000C0031211F6D0030B80A49E
:070CE800E5502460FBE43439
:090CEF0022FC8B058C06E5502463
:070CF8004AFFE43422F87505
:020CFF005101A1
:0C0D01008F828883E493FAC3955150015F
:010D0D0022C3
:020D0E007A0168
:0C0D10008B828C83E493F9C39A402CD2B0
:030D1C00038551FB
:040D1F000D8A0E85A6
:0C0D23005082C002C003C004C005C0061E
:0E0D2F00C007C0001211D4D000D007D006D0EB
:0A0D3D0005D004D003D0020A80C9DB
:0E0D4700900000C003C004C005C006C007C075
:0E0D5500001211F69000641212AFD000D00709
:0A0D6300D006D005D004D0037A01B9
:0C0D6D008D828E83E493F9C39A402CC25F
:030D79000385519E
:040D7C000D8A0E8549
:0C0D80005082C002C003C004C005C006C1
:0E0D8C00C007C0001211D4D000D007D006D08E
:0A0D9A0005D004D003D0020A80C97E
:0E0DA400900000C003C004C005C006C007C018
:0E0DB200001211F6D000D007D006D005D004F4
:070DC000D0030551020D01F3
:0A0DC700858252AB527C00C003C0CD
:0A0DD100047488C0E07421C0E074CF
:0D0DDB0080C0E01217C2E58124FBF581E520
:050DE80052705E7B016A
:070DED00C3E5249B50012225
:020DF4007C0180
:090DF600C3E5229C4014D2028BDB
:0C0DFF000B8C82C003C004121183D004CE
:050E0B00D0030C80E69D
:0E0E1000900000C0031211F69000641212AFA1
:040E1E00D0037C0180
:090E2200C3E5229C4014C2028BBE
:0C0E2B000B8C82C003C004121183D004A1
:050E3700D0030C80E671
:0D0E3C00900000C0031211F6D0030B80A43B
:070E4900E552244AFBE434EA
:090E500022FC8B058C06E55224FE
:070E590060FFE43422F8758C
:020E600053013C
:0C0E62008F828883E493FAC395535001FB
:010E6E002261
:020E6F007A0106
:0C0E71008B828C83E493F9C39A402CD24E
:040E7D00038A0D8552
:030E8100530E8588
:0C0E84005282C002C003C004C005C006BA
:0E0E9000C007C0001211D4D000D007D006D089
:0A0E9E0005D004D003D0020A80C979
:0E0EA800900000C003C004C005C006C007C013
:0E0EB600001211F69000641212AFD000D007A7
:0A0EC400D006D005D004D0037A0157
:0C0ECE008D828E83E493F9C39A402CC2FD
:040EDA00038A0D85F5
:030EDE00530E852B
:0C0EE1005282C002C003C004C005C0065D
:0E0EED00C007C0001211D4D000D007D006D02C
:0A0EFB0005D004D003D0020A80C91C
:0E0F0500900000C003C004C005C006C007C0B5
:0E0F1300001211F6D000D007D006D005D00491
:070F2100D0030553020E622C
:0A0F2800858254AB547C00C003C066
:0A0F32000474B8C0E07421C0E0743C
:0D0F3C0080C0E01217C2E58124FBF581E5BD
:060F490054244AFBE434CD
:050F4F0022FCE5542422
:070F540060FDE43422FE758C
:020F5B0056013D
:0C0F5D008D828E83E493F8C395565001FA
:010F69002265
:030F6A00755501B9
:0E0F6D00C005C0068B828C83E493F989007A5C
:060F7B000018B8FF011A86
:0C0F8100AF557D00C3E89FEA64808DF04E
:0E0F8D0063F08095F0E433D006D005600302D7
:020F9B00102024
:040F9D00D2038555A1
:030FA1000D855665
:0A0FA4000E855482C003C004C0058E
:0E0FAE00C0061211D4D006D005D004D003E541
:060FBC005504FAD2038A7D
:030FC2000D855644
:0A0FC5000E855482C002C003C00470
:0E0FCF00C005C0061211D49000001211F69059
:080FDD0000321212AFC20385BD
:030FE500550D8522
:030FE800560E851D
:0C0FEB0054821211D4D006D005D004D0DE
:080FF70003D002C2038A0D853C
:030FFF00560E8506
:0C1002005482C002C003C004C005C00638
:0E100E001211D4D006D005D004D003D0028A2F
:04101C0055020F6DFD
:021020008955F0
:09102200E55524FE40030210AE66
:04102B00D203855512
:03102F000D8556D6
:0A1032000E855482C003C004C005FF
:0E103C00C0061211D4D006D005D004D003E5B2
:06104A005514FAD2038ADE
:031050000D8556B5
:0A1053000E855482C002C003C004E1
:0E105D00C005C0061211D49000001211F690CA
:08106B0000321212AFC203852E
:03107300550D8593
:03107600560E858E
:0C10790054821211D4D006D005D004D04F
:0810850003D002C2038A0D85AD
:03108D00560E8577
:0C1090005482C002C003C004C005C006AA
:0E109C001211D4D006D005D004D003D0028AA1
:0410AA0055021022B9
:0E10AE00900000C003C004C005C0061211F679
:0E10BC009000FA1212AFD006D005D004D00377
:0510CA000556020F5D58
:0E1DBD004C454420436F6E74726F6C6C6572FF
:0E1DCB002C2056302E372C20323030382D3060
:0E1DD900362D30380A436F7079777269746561
:0E1DE7002028632920323030382C20414D5303
:0E1DF50020436F6E73756C74696E670A2D2D36
:091E03002D2D2D2D2D2D2D2D006E
:0E1E0C00524F7773203C6E3E0A434F6C756D4B
:0E1E1A006E73203C6E3E0A416C6C20206F6E91
:0E1E28007C6F66660A44417461203C627974E6
:0E1E3600656F66667365743E203C6E6279745B
:0E1E440065733E203C686578696669656420B8
:0E1E5200646174613E0A504978656C20307CF2
:0E1E600031203C726F773E203C636F6C3E2059
:0E1E6E005B3C70616E656C3E5D0A544573749A
:0E1E7C00203C746573746E756D6265723E2055
:0E1E8A005B3C70616E656C3E5D0A524566728F
:041E98006573680006
:0E1E9C00544573742031205B3C70616E656CA0
:0E1EAA003E5D20202020202D2D2020203420E1
:0E1EB800636F726E657273204F4E0A5445734D
:0E1EC600742032205B3C70616E656C3E5D20C6
:0E1ED400202020202D2D202020616C6C2070FD
:0E1EE2006978656C73204F4E0A544573742066
:0E1EF00033205B3C70616E656C3E5D202020EF
:0E1EFE0020202D2D202020616C6C2070697832
:0E1F0C00656C73204F46460A544573742034AA
:0E1F1A00205B3C70616E656C3E5D205B6B5D14
:0E1F2800202D2D202020616C6C204F4E202F8C
:0E1F360020616C6C204F46460A54457374209F
:0E1F440035205B3C70616E656C3E5D205B6B12
:0E1F52005D202D2D2020206D61726368696E68
:0E1F60006720726F77207061747465726E0A6C
:0E1F6E00544573742036205B3C70616E656CC8
:0E1F7C003E5D205B6B5D202D2D2020206D61D1
:0E1F8A00726368696E6720636F6C756D6E2000
:0E1F98007061747465726E0A5445737420375C
:0E1FA600205B3C70616E656C3E5D205B6B5D88
:0E1FB400202D2D20202043796C6F6E2070614F
:0E1FC200747465726E0A544573742038205B87
:0E1FD0003C70616E656C3E5D205B6B5D202D8C
:0E1FDE002D2020206C6F7473206F66207465B8
:041FEC007374730097
:071FF000010127208002011E
:051FF700DE2180030360
:051FFC00E32180040355
:05200100E8218005004C
:05200600EE2180060040
:05200B00F32180070035
:05201000FB2180080027
:0520150001228009001A
:05201A000622800A000F
:08201F000A228000000000000D
:05202700726F777300E9
:08202C00636F6C756D6E7300AB
:0420340065683F009C
:0C2038006D697373696E67206172670048
:0E2044002573206D75737420626520626574CB
:0E2052007765656E20256420616E642025642C
:0E2060002E202053657474696E6720746F2003
:04206E0025640A00DB
:052072007472756500A9
:032077006F6E0089
:06207A0066616C73650055
:042080006F66660021
:09208400455252206164647200AF
:08208D00455252206C656E0003
:0C209500455252206E6F6E2D6865780079
:0320A1004F4B00A2
:0E20A40044454255472064617461206E726F9E
:0E20B2007773202564206E726F77735F646908
:0E20C000765F38202564206E636F6C732025D8
:0E20CE0064206E6C65645F626F6172647320E3
:0420DC0025640A006D
:0A20E0006C65645F646174613A008E
:0120EA0000F5
:0720EB00253034643A2000A7
:0620F200253032782000C9
:0920F8002020253034643A200058
:022101000A00D2
:0E21030073656C66746573742031202D206343
:0E2111006F726E657273204C454473206F6EC2
:0D211F002C202070616E656C2025640A0084
:0E212C0073656C66746573742034202D206119
:0E213A006C6C20706978656C73204F4E2074B9
:0E21480068656E204F46462C2070616E656CF7
:052156002025640A00D1
:0E215B0073656C66746573742035202D206DDD
:0E21690061726368696E6720726F7720706123
:0E217700747465726E2C2070616E656C20258C
:03218500640A00E9
:0E21880073656C66746573742036202D206DAF
:0E21960061726368696E6720636F6C756D6EB1
:0E21A400207061747465726E2C2070616E651F
:0621B2006C2025640A0008
:0E21B80073656C66746573742037202D2043A8
:0E21C600796C6F6E207061747465726E2C20DF
:0A21D40070616E656C2025640A003E
:0521DE00636F6C73004B
:0521E30064617461005D
:0621E800706978656C00CF
:0521EE0074657374002C
:0821F3007265667265736800F5
:0621FB00646562756700D7
:0522010068656C70002F
:042206006E6F700087
:04220A00616C6C0097
:02009300D20495
:0910CF00AA82E518247CF582E5F3
:0810D800193402F583EAF0224D
:0C10E000AA82AB097C00EB24FFF582EC37
:0810EC0034FFF583852318751C
:0C10F4001900C002121732AB82AC83D08E
:0A11000002AD087E001DBDFF011EB8
:0E110A00EEC423CDC423541F6DCD541FCD6DF4
:06111800CD30E40244E0CA
:0C111E00FEED2BFBEE3CFCEB247CF5828C
:08112A00EC3402F583EAF02227
:0C113200AA82AB0A7C00EB24FFF582ECE3
:08113E0034FFF58385231875C9
:0C1146001900C002121732AB82AC83D03B
:08115200027D001ABAFF011D25
:0E115A00EDC423CAC423541F6ACA541FCA6AB4
:06116800CA30E40244E07D
:0C116E00FDEA2BFBED3CFCEB247CF58241
:09117A00EC3402F583E0F5822259
:08118300AA82850B0AC00212CA
:0E118B001132AB82D002EA14540790220E9368
:09119900FC300205EC4203800564
:0511A200ECF4FC520317
:0411A7008A08850B22
:0611AB00098B820210E036
:0811B100AA82850C0AC002129B
:0E11B9001132AB82D002EA1454079022169332
:0811C700FA5B60047A0180026A
:0211CF007A00A4
:0311D1008A8222ED
:0C11D400E582FA90221E93FBE50D2B141F
:0C11E000FBEA90223493FAE50E2A14F585
:0411EC000BA20392BD
:0611F000028B8202118354
:0E11F600AA82AB83EA4B6019EA24FFFCEB34BB
:0A120400FFFDEC247CF582ED3402BE
:07120E00F5838A188B190219
:02121500123491
:0A121700E52524FFFAE52634FFFB6D
:0A122100EA247CF582EB3402F58329
:04122B008525188578
:03122F002619027B
:02123200123474
:0C123400AA82AB8330040BD293D2970047
:06124000C297C204C29334
:09124600C29300C295AC18AD1969
:0E124F00C3E49C74808DF063F08095F0503203
:08125D008A828B83E0FE7F070B
:0C126500EF20E71AEE30E704780080026A
:02127100780102
:0E127300E824FF9291D29500C295EE2EFE1F48
:0212810080E209
:051283001CBCFF011D71
:051288001ABAFF011B72
:02128D0080C01F
:0A128F00D293D29700C297C29322B7
:0E129900AA82C0021213FFD002BA0A067582A2
:0412A7000D0213FF22
:0112AB002220
:0312AC0002142306
:0412AF00AA82AB83E1
:0512B3001ABAFF011B47
:0812B800EA4B600F7C407D0150
:0512C0001CBCFF011D34
:0612C500EC4D60EA80F52B
:0112CB002200
:08220E000102040810204080C9
:082216000102040810204080C1
:0E221E000101112701112701112701112701CC
:08222C00112701112701112700
:0E223400010101010606060C0C0C1212121814
:0822420018181E1E1E2424249E
:0E224A0038101612101612101612101612105E
:082258001612101612101612E6
:0E2260002805050506060606060606060606FD
:08226E0006060606060505053B
:0412CC00AA827B0077
:0D12D000C3EB9A501B9000C8C002C003126F
:0E12DD0012AFB2A69000C81212AFD003D0021A
:0512EB00B2A60B80E03B
:0112F00022DB
:0412F1007A007B0400
:0A12F500EB6030E580F4FC7001228C
:0212FF008B055D
:0D130100ED601E900014C003C004C0051272
:0E130E0012AFD005D004D003E580F4FAB50488
:06131C00081D8D0380DFB7
:03132200EA70046A
:031325001B80CD5D
:0113280022A2
:0D132900BA400C9000001211F6758201020E
:0213360012CCD7
:05133800BA0102802152
:05133D00BA0202801C51
:05134200BA0302801750
:05134700BA040280124F
:05134C00BA0502800D4E
:05135100BA060280084D
:05135600BA070280034C
:03135B00BA0814B9
:0A135E00740F5AF582754E00754FAA
:0A136800031209D17582020212CCB3
:011372002258
:09137300C2AC7512007511007581
:06137C001000750F00C215
:0C13820005538FFE758921759850D2BC70
:0E138E00C2ACC2A9C2AB758DFB758BFBD28CB5
:07139C00D28ED2ACD2AF22C9
:0E13A300C0E0C0F0C002C000C0D075D0001085
:0413B1009802801A04
:0913B50074D8250F4014AA0F059D
:0A13BE000FEA251175F02884AAF04B
:0713C800EA2400F8E599F2A8
:0513CF001099028020CE
:0713D400E51024FF9205E57E
:0613DB001060161510AAB7
:0513E100120512EA24D0
:0A13E60028F8E2F59974FC25125076
:0413F000037512006F
:0B13F400D0D0D000D002D0F0D0E0320A
:0213FF00AA82C0
:0A14010074FC251040FAC2AC30055F
:07140B0010AB100510EB25EA
:0A1412001254032428F8EAF28004C3
:04141C008A99D205D2
:03142000D2AC2229
:09142300E50F60FCC2AC150FAA34
:05142C00110511EA2486
:0A14310000F8E2FA74D82511500308
:03143B0075110028
:05143E00D2AC8A8222FD
:06144300AA82AB83ACF0AD
:0E1449008A828B838CF0121D9DFDA3AA82ABBC
:0E14570083EDFE602CBE0A1675820DC002C029
:0E14650003C004C0061213FFD006D004D0034B
:02147300D002A5
:0E1475008E82C002C003C0041213FFD004D048
:0514830003D00280C14E
:011488002241
:08148900AA82AB83ACF07D00E8
:09149100C3E5139D500302151878
:0C149A00E50F7015C002C003C004C005BF
:0D14A6001212F1D005D004D003D00280E76F
:0E14B300C002C003C004C005121423AE82D0D4
:0E14C10005D004D003D002BE0D178E82C002EB
:0E14CF00C003C004C0051213FFD005D004D026
:0514DD0003D0027E0AAD
:0D14E2008E82C002C003C004C005C0061207
:0E14EF0013FFD006D005D004D003D0028D0725
:0E14FD000DEF2AFFE43BF88C018F8288838973
:0A150B00F0EE121719BE0A02800369
:031515000214912C
:0E151800ED2AFAE43BFB8A828B838CF0E4021E
:02152600171993
:081528007404C39510F5822242
:04153000850F82227F
:05153400AA82BA30009C
:071539004005EA24C650142E
:03154000BA61008D
:071543004005EA2499500A5B
:03154A00BA4100A3
:07154D004009EA24B9400443
:041554007582012279
:041558007582002276
:0A155C00AA82AB83ACF0E51B451C2E
:0615660070049000002259
:05156C00AD18AE19AF3F
:041571001AA81BA9F0
:011575001C59
:0515760018B8FF011987
:0E157B00E84960378A828B838CF0121D9DF543
:0A1589001DE51D6028C000C0018DA3
:0C159300828E838FF0121D9DF8B51D04A0
:04159F007401800152
:0115A300E463
:0B15A400D001D000600C0ABA00010B5F
:0715AF000DBD00C30E80C05A
:0E15B6008A828B838CF0121D9DFA3395E0FB28
:0E15C4008D828E838FF0121D9DFD3395E0FC0D
:0A15D200EAC39DF582EB9CF583222D
:06005A00E478FFF6D8FD7A
:0715DC00AA82BA2002801769
:0515E300BA0C028012A9
:0515E800BA0A02800DAB
:0515ED00BA0D028008A8
:0515F200BA09028003AC
:0315F700BA0B0428
:0415FA0075820122D3
:0415FE0075820022D0
:0A160200AC82AD83AE19AF1ABE0032
:05160C0004EF600C1F5B
:031611000FE518CA
:08161400121719A3DEFADFF83A
:05161C008C828D832289
:080038007900E94400601B7A25
:05004000009022817810
:030045007C75A027
:0A00480004E493F2A308B8000205D7
:08005200A0D9F4DAF275A0FF59
:0E162100AA82AB83ACF07D007E008A078B00AE
:02162F008C012C
:0E1631008F82888389F0121D9DFA602EC3748B
:0E163F00B98AF063F08095F04007EA64809469
:03164D00B0501B7F
:0E1650008F82888389F0121D9DFABA2D0280C8
:01165E000C7F
:05165F00BA2B02800718
:071664000FBF00C90880C69A
:0D166B008F02880389048F82888389F01222
:081678001D9DFFE4BF2D0104DC
:08168000F888017003BF2B057F
:051688000ABA00010B8D
:0E168D008A828B838CF0121D9DFF6057C3EF85
:0E169B00648094B0404F74B98FF063F0809576
:0A16A900F04044C0018D188E199026
:0D16B300000AC002C003C004C007C001123D
:0716C00017328582148583B7
:0C16C70015D001D007D004D003D002EFF2
:0E16D3003395E0F8EF24D0FFE834FFF8EF2560
:0A16E10014FDE83515FE0ABA0001F9
:0116EB000BF3
:0416EC00D001809D0C
:0C16F000E96009C3E49DFAE49EFB80045D
:0416FC008D028E03CA
:051700008A828B8322A8
:05170500AA82BA3000C9
:0B170A004009EA24C640047582012259
:0417150075820022B7
:0E17190020F71030F6118883A88220F507F61D
:05172700A8837583009A
:01172C00229A
:03172D00F280F750
:02173000F022A5
:0B173200E5828518F0A4C582C0F08598
:0A173D0019F0A4D0F025F0C5838553
:0817470018F0A42583F58322AC
:0400600075A000780F
:070064002CE844006007795D
:06006B0000E4F309D8FCDB
:080071007850E84404600C79AA
:0B0079000590002CE4F0A3D8FCD9FA9D
:0A174F00AA82AB83ACF07D007E009F
:0E1759008A828B838CF0121D9DFF60258F828B
:051767000ABA00010BAD
:0E176C00C002C003C004C005C006121299D00E
:0E177A0006D005D004D003D0020DBD00D20E63
:0217880080CF10
:0E178A0075820AC005C006121299D006D0055D
:061798008D828E83A32266
:06179E00C017858117123F
:0517A4001299D017228C
:0817A90085826685836785F0E7
:0517B10068E4F563F59A
:0417B60064F56585EC
:0317BA001669901D
:0517BD00179E021882D6
:0617C200C017858117E548
:0717C8001724FBF569E4F5AD
:0417CF0063F564F565
:0717D30065E51724FBF88611
:0617DA0066088667088620
:0517E0006890179E1245
:0517E5001882D017225C
:0717EA00AA82C059C05AC0D9
:0617F1005B7401C0E0740E
:0617F70018C0E0C057C05D
:0417FD00588A822262
:0A1801001581158115810561E4B51C
:04180B00610205620F
:01180F0022B6
:0E181000AA8274302AFA24C6500A74072AFAF3
:06181E0030060343022026
:051824008A820217EAB0
:0E182900E582FAC4540FF582C002121810D0E6
:0918370002740F5AF58202181028
:06184000858218AB5CACD0
:041846005DAD5EAE88
:04184A005FAF6075B7
:02184E0019205F
:0E185000EF2FFFEE235401FA4207EB2BFBECC7
:0C185E0033FCED33FDEE33FEC3EF9518B4
:0A186A004008EFC39518FF43030187
:06187400D519D98B5C8C34
:04187A005D8D5E8E94
:04187E005F8F6022F6
:07188200858257858358851C
:031889006359851B
:03188C00645A8516
:04188F00655BE4F5BC
:0318930061F5629A
:05189600AA66AB67AC7F
:0C189B00688A828B838CF0121D9DFD7406
:0918A700012AF566E43BF5678CAB
:0818B00068EDFA7003021D7ED1
:0518B800BA25028003C7
:0318BD00021D7693
:0518C000C207C208C2CE
:0418C50009C20AC288
:0418C9000BC20CC280
:0418CD000DC20E75C5
:0818D1006A00756B007DFFAE9B
:0418D90066AF67ABE4
:0118DD0068A2
:0E18DE008E828F838BF0121D9DFAA3AE82AF17
:0618EC00838E668F678BFE
:0B18F20068BA25078A821217EA809965
:0518FD008A04BC30006C
:0D190200402A8A04EC24C64023BDFF13E5F3
:0B190F006B75F00AA4FCEA24D02CF554
:07191A006B70C1D20880BD13
:0D192100ED75F00AA4FCEA24D02CFD80B086
:0A192E00BA2E07BDFFAA7D0080A6B7
:051938008A04BC6100FF
:0D193D00400E8A04EC248540075302DFD2DF
:03194A0006800212
:02194D00C206D0
:05194F00BA20028055E2
:05195400BA2B02804BDC
:05195900BA2D028041DF
:05195E00BA4202804BBB
:05196300BA43028050B0
:06196800BA4403021B1645
:06196E00BA4603021B2C27
:06197400BA4903021B1634
:05197A00BA4C028034AC
:06197F00BA4F03021B1D1C
:06198500BA5003021AAD86
:05198B00BA5302804C7C
:06199000BA5503021B2200
:06199600BA5803021B27F2
:03199C00021B30FB
:05199F00D2070218DE72
:0519A400D2090218DE6B
:0519A900D20A0218DE65
:0519AE00D20C0218DE5E
:0519B300D20D0218DE58
:0819B800300C0AE56914F888FF
:0519C000698602800FA2
:0A19C500E56924FEF888698603082E
:0519CF008604188B02E4
:0819D4008A821217EA021B3996
:0A19DC00E56924FDF8886986030818
:0A19E600860408860618188B5C8C36
:0419F0005D8E5E8525
:0619F4005C82855D838525
:0C19FA005EF0C005121D85AB82AC83D0EE
:061A060005BDFF028B0587
:0A1A0C0020072EC3EB956B5028E570
:061A16006BC39BF56BACF5
:011A1C006B5E
:0A1A1D008C061C8C6BBE00028014C6
:0E1A2700758220C003C004C0051217EAD00566
:061A3500D004D00380E2A2
:021A3B008C6BB2
:021A3D008D0416
:071A3F00855C82855D838553
:0C1A46005EF0121D9DFD8D02602F8C05CE
:0E1A52001CC374808DF063F08095F050208AE4
:0D1A600082C003C0041217EAD004D003AD09
:041A6D005CAE5DAF5F
:061A71005E0DBD00010E38
:051A77008D5C8E5D8F07
:031A7C005E80C0C9
:061A7F00200703021B39E1
:091A8500C3EB956B4003021B3911
:071A8E00E56BC39BF56BAC97
:011A95006BE5
:0B1A96008C051C8C6BBD0003021B378D
:0C1AA100758220C0041217EAD00480E90E
:0A1AAD00E56924FDF8886986050844
:0A1AB700860608860718188D5C8E5D
:041AC1005D8F5EE5F2
:0A1AC5005EFD247F50047A43801474
:091ACF00ED249F50047A50800BB5
:091AD800ED24BF50047A4980029C
:021AE1007A5831
:0E1AE3008A82C0021217EA75823A1217EA755B
:0E1AF10082301217EA7582781217EAD002BA14
:041AFF004902800B0D
:051B0300BA500280064B
:061B0800855D8212182920
:081B0E00855C82121829802376
:071B1600D20B756A0A801C66
:051B1D00756A08801745
:051B2200756A0A801243
:051B2700756A10800D3D
:041B2C00D20E80094C
:071B30008A821217EA80020D
:021B37008C6BB5
:091B3900300E53E56924FCF88824
:0C1B4200698604088605088606088607E8
:081B4E001818188C5C8D5D8EE7
:041B56005E8F5F75CA
:031B5A005C767541
:031B5D005D227591
:021B60005E80A5
:051B6200AA5CAB5DAEC2
:0B1B67005E74012AFFE43BFC8E058F3A
:041B72005C8C5D8D9D
:0C1B76005E8A828B838EF0121D9DFC8C19
:061B820002700302189638
:071B88008A821217EA80D3E4
:071B8F00E4B56A0302189699
:061B96007A71300C2BE512
:0A1B9C006914F88869E6FD3395E04E
:081BA600FEFFFC8D5C8E5D8FDB
:041BAE005E8C5F20CA
:0A1BB2000B62AC5C7D007E007F003A
:051BBC008C5C8D5D8EC4
:051BC1005E8F5F805003
:091BC600300D1FE56924FCF888CC
:0C1BCF006986040886050886060886075B
:081BDB001818188C5C8D5D8E5A
:051BE3005E8F5F802E03
:0A1BE800E56924FEF8886986040808
:0C1BF200860518ED3395E0FEFF8C5C8D3D
:041BFE005D8E5E8F0B
:051C02005F200B10AC97
:081C07005CAD5D7E007F008CE6
:041C0F005C8D5D8EFD
:031C13005E8F5F82
:0A1C1600300B22E55F30E71BC3E44A
:091C2000955CFCE4955DFDE49582
:071C29005EFEE4955FFF8CF5
:041C30005C8D5D8EDC
:051C34005E8F5F8002DD
:021C3900C20BDC
:061C3B00D20F8A007C00BC
:0A1C4100756000856A82C004C000CF
:0B1C4B00121840D000D004200F0DE55F
:0C1C560060C4FDE6FE4DF6188802800216
:021C6200A6607A
:081C64000C8C03B20FE55C4596
:041C6C005D455E452F
:0A1C70005F70CE88028C03E56B70F4
:041C7A0003756B0182
:0A1C7E00200828200725EB04FCAD28
:011C88006BF0
:0E1C8900C3EC9D5019758220C002C003C00438
:0E1C9700C0051217EAD005D004D003D0021DFC
:021CA50080E2DB
:021CA7008D6B43
:0B1CA900300B1275822DC002C0031228
:0A1CB40017EAD003D002156B802D53
:051CBE00BB00028028BC
:0B1CC30030091275822BC002C0031212
:0A1CCE0017EAD003D002156B801353
:0B1CD800300A10758220C002C0031209
:081CE30017EAD003D002156BD3
:051CEB00200728AC6B8E
:0B1CF0008C051C8C6BC3EB9D502F304B
:061CFB0008047D308002A8
:021D01007D2043
:0E1D03008D82C002C003C0041217EAD004D0C3
:051D110003D00280DA9E
:0A1D1600C3EB956B5008E56BC39B0F
:041D2000F56B8007D8
:051D2400756B00800258
:021D29008C6BC1
:021D2B008A002C
:0A1D2D008B041BEC6026B20F200FA0
:0B1D37000A08E6C4540FFC8C60800713
:071D42008604740F5CF560DC
:0C1D4900856082C003C000121810D0009A
:041D5500D00380D463
:061D5900200703021896AA
:021D5F00AB6B6C
:091D61008B041BEC7003021896C0
:0C1D6A00758220C0031217EAD00380EB42
:081D76008A821217EA02189696
:071D7E00856182856283226A
:0B2276003C4E4F20464C4F41543E00B0
:041D8500AA82AB8300
:081D8900121D9D6003A380F808
:0C1D9100C3E5829AF582E5839BF583226E
:03002B007581716B
:0A002E00121DB9E5826003020026EE
:0E1D9D0020F71430F6148883A88220F507E69C
:061DAB00A88375830022ED
:031DB100E280F7D6
:031DB400E4932293
:021DB700E02228
:041DB900758200220D
:00000001FF
